:0400000073EF00F0AA
:100008004882FACF2DF0FBCF2EF0E9CF2FF0EACFC0
:1000180030F0E1CF31F0E2CF32F0D9CF33F0DACFA0
:1000280034F0F3CF35F0F4CF36F0F6CF37F0F7CF22
:1000380038F0F8CF39F0F5CF3AF048C03BF049C076
:100048003CF04AC03DF04BC03EF0A4AA16D0100EBA
:100058002924D96E000E2A20DA6E74CFDFFF294AD0
:100068002A2A2ABE0AD02A5004E1190E295CD8A0EF
:1000780004D0000E2A6E000E296EF2BAF2A409D03E
:10008800F294010E0526000E0622072208229C0E75
:10009800D66E3EC04BF03DC04AF03CC049F03BC074
:1000A80048F03AC0F5FF39C0F8FF38C0F7FF37C04D
:1000B800F6FF36C0F4FF35C0F3FF34C0DAFF33C0B3
:1000C800D9FF32C0E2FF31C0E1FF30C0EAFF2FC0E4
:1000D800E9FF2EC0FBFF2DC0FAFF4892110015EF73
:1000E80002F067EC02F073EC02F04EEC02F07CECEC
:1000F80002F02BC029F02CC02AF072A2FED7750E90
:10010800736E2B50291804E12C502A18D8B473D1D7
:10011800100E2B24D96E000E2C20DA6E310EDE184C
:10012800D8A452D072A2FED7790E736E100E3F6E0D
:10013800000E406E2BC041F02CC042F0000E446E01
:10014800010E436E32EC02F0630AD8A416D0100EEA
:100158003F6E000E406E2BC041F02CC042F0000EE6
:10016800446E020E436E32EC02F0610AD8A405D048
:100178008B8472A2FED7310E736E100E3F6E000E86
:10018800406E2BC041F02CC042F0000E446E010EB0
:10019800436E32EC02F0700AD8A416D0100E3F6EEF
:1001A800000E406E2BC041F02CC042F0000E446E91
:1001B800020E436E32EC02F06B0AD8A405D08B9481
:1001C80072A2FED7320E736E100E2B24D96E000E5B
:1001D8002C20DA6E320EDE18D8A44ED0100E3F6EE8
:1001E800000E406E2BC041F02CC042F0000E446E51
:1001F800010E436E32EC02F0630AD8A416D0100E3A
:100208003F6E000E406E2BC041F02CC042F0000E35
:10021800446E020E436E32EC02F0610AD8A405D097
:100228008B8672A2FED7330E736E100E3F6E000ED1
:10023800406E2BC041F02CC042F0000E446E010EFF
:10024800436E32EC02F0700AD8A416D0100E3F6E3E
:10025800000E406E2BC041F02CC042F0000E446EE0
:10026800020E436E32EC02F06B0AD8A405D08B96CE
:1002780072A2FED7340E736E100E2B24D96E000EA8
:100288002C20DA6E2A0EDE18D8A44FD0100E3F6E3E
:10029800000E406E2BC041F02CC042F0000E446EA0
:1002A800010E436E32EC02F0630AD8A416D0100E89
:1002B8003F6E000E406E2BC041F02CC042F0000E85
:1002C800446E020E436E32EC02F0610AD8A405D0E7
:1002D800826872A2FED7350E736E100E3F6E000E46
:1002E800406E2BC041F02CC042F0000E446E010E4F
:1002F800436E32EC02F0700AD8A417D0100E3F6E8D
:10030800000E406E2BC041F02CC042F0000E446E2F
:10031800020E436E32EC02F06B0AD8A406D0000E2F
:10032800826E72A2FED7360E736E100E2B24D96E13
:10033800000E2C20DA6E330EDE18D8A44ED0100E24
:100348003F6E000E406E2BC041F02CC042F0000EF4
:10035800446E010E436E32EC02F0630AD8A416D044
:10036800100E3F6E000E406E2BC041F02CC042F0C4
:10037800000E446E020E436E32EC02F0610AD8A4FD
:1003880005D08B8872A2FED7330E736E100E3F6EA7
:10039800000E406E2BC041F02CC042F0000E446E9F
:1003A800010E436E32EC02F0700AD8A416D0100E7B
:1003B8003F6E000E406E2BC041F02CC042F0000E84
:1003C800446E020E436E32EC02F06B0AD8A405D0DC
:1003D8008B9872A2FED7340E736E2B4A2C2A2CBE31
:1003E8000AD02C5004E1190E2B5CD8A004D0000EC2
:1003F8002C6E000E2B6E0850071006E1400E055CAF
:100408009C0E0658D8A07DD672A2FED7720E736EC7
:10041800000E056E000E066E000E076E000E086ECA
:1004280070D6FE0EF66E040EF76E000EF86E09001A
:10043800F5CF46F00900F5CF47F000EE60F0190E51
:10044800EE6AE806FDE100EE01F02C0EEE6AE80621
:10045800FDE148904892000175EF00F00FD041503F
:100468004210D8A405D0000E426E020E416E03D091
:100478004106D8A042064306D8A04406435044107B
:10048800D8A4EDD741503F24D96E42504020DA6EAF
:10049800DF501200000E0F01396F938C938E718814
:1004A8007298718E080E706E820E756E060E766EDC
:1004B800240E726E900E716EF28EF28AF294A38AF6
:1004C800F28CF28E1200D58ED58CD59AD598D59609
:1004D800D550F80B0309D56E9C0ED66E1200D38842
:1004E800D38AD38CFC0ED316D28ED29C9B8C12004E
:0804F800000E946E1200FFFFDC
:020000040020DA
:08000000FFFFFFFFFFFFFFFF00
:020000040030CA
:0E000000FF380137FF9580FF00000FE00F4032
:00000001FF
